:020000040000FA
:04000000B201B1296F
:080008000800A9008030A000EF
:100010008430A1001E30A400A5017721AA01210887
:10002000031919282A145520FC3E031C1928AA1468
:1000300055202003AB00280F2128FF30A400A50085
:100040002C282808A500A401A600A7012B0A031943
:100050002C28A200A3019121A90B45281708CF390C
:10006000A41B2038241B10380C3897002508950055
:100070008316071183122B0883169200831212082D
:10008000FC392A0404389200AC29A90B54281D0815
:10009000CF39A41B2038241B10380C389D002508AC
:1000A0009B00831687103A28AC29A10CA00CA10C48
:1000B000A00C08000408A700871307130713831672
:1000C0008713071307130F30880583122708B21808
:1000D00087283A30A100FC3040213330A6009B2015
:1000E0001030A100683040219B2064303F219B20CC
:1000F0002230A6009B20283086200C30862001303C
:10010000862006308620B214270887283214A600DD
:10011000321C95280713033C031C9A289A200730A9
:10012000A100D0304021031408003214FE3C031912
:10013000AC290717321C321087170F3088052608A4
:10014000F03988048713A60E32189B2832303F21DD
:1001500003140800B31329080319B3170530A800C6
:100160002730A3001030C0200330A300E830C020A7
:10017000A3016430C020A3010A30C0202408C7288E
:10018000A2002508A1002408A00075212008A000D5
:10019000A8030319B31329080319D1282802031847
:1001A00008002008031DB313B31B0800303EA72925
:1001B000A300360884008417340980058413A3083B
:1001C0000319AC29F030A50022088038A400F030D3
:1001D000A5030319A5000319A3030319AC292008DB
:1001E000A6002108A70016303F212608A0002708F6
:1001F000A1000921030120183408A21F3408A20815
:1002000003190301A40F06298006E428072900002A
:10021000E728210820040319A00A8030201AA1062B
:100220002019A106A018A106210DA00DA10DAC2931
:10023000031783168C010C1483120C0803178D0A04
:10024000AC29030103178C0083168C010C15553063
:100250008D00AA308D008C148C182C290C1183125F
:100260008D0AAC29A301A200FF30A207031CA3073B
:10027000031CAC290330A100E33040213429A10143
:10028000F43EA000A109FE30031C4929A007031871
:100290004629A0076400A10F462900002018502914
:1002A000201852290800A20003306129A200013061
:1002B0006129A20006306129A20004306129A20050
:1002C0000530A80023082102031D68292208200206
:1002D000043003180130031902302805031DFF30D4
:1002E000AC290404031DFF30AC29A501A401103082
:1002F000A600210DA40DA50D2208A4022308031CAD
:10030000230FA50203188B292208A407230803182A
:10031000230FA5070310A00DA10DA60B7929200816
:10032000AC291030A800A101A001A70CA60C031C49
:100330009F292208A00723080318230FA107A10C57
:10034000A00CA50CA40CA80B95292408AC298400AA
:1003500031088A003008820083130313831264007B
:100360000800C0309F00831675308F000130850073
:100370000130860087018801890180308100831265
:10038000C0308B00831696018C018D0183128C0185
:100390008D01831601309600031701308800890112
:1003A0008312031381309F00831680309F008312D5
:1003B00003178701880183168501831203139701B0
:1003C0009D0190018B178A110A12EB298B1B0800E3
:1003D0008A110A1629298A01E621FE308A015B204A
:1003E00040308A015B2004308A015B2002308A01A0
:1003F0005B201F308A015B2012308A015B201430A1
:100400008A015B2010308A015B2010308A015B205A
:1004100000308A015B208A01E621FE308A015B20E0
:1004200048308A015B2004308A015B2008308A0151
:100430005B201F308A015B2009308A015B20053078
:100440008A015B2001308A015B2001308A015B2038
:1004500000308A015B208A01E621FE308A015B20A0
:1004600050308A015B2010308A015B2018308A01ED
:100470005B201C308A015B201E308A015B201C300F
:100480008A015B2018308A015B2010308A015B20D2
:1004900000308A015B208A01E621FE308A015B2060
:1004A00058308A015B2000308A015B201B308A01B2
:1004B0005B201B308A015B201B308A015B201B30D4
:1004C0008A015B201B308A015B2000308A015B209F
:1004D00000308A015B208A01E621FE308A015B2020
:1004E00060308A015B2011308A015B2019308A015B
:1004F0005B201D308A015B201F308A015B201D308C
:100500008A015B2019308A015B2011308A015B204F
:1005100000308A015B208A01E62103178D01031355
:100520008A011821C4008A01E621031701308D00D9
:1005300003138A011821C5008A01E621031702303E
:100540008D0003138A011821CB008A01E6210317CD
:1005500003308D0003138A011821C9008A01E621A6
:10056000031704308D0003138A011821CA008A0181
:10057000E621031705308D0003138A011821013984
:1005800003198810031D88148A01E62185018A0158
:10059000E62186018A01E62187018A01E621880198
:1005A0008A01E62189018A01E62196018A01E62174
:1005B00095018A01E621C001C1018A01E621C60137
:1005C000C7018A01E62164308A0132218A01E621CD
:1005D00064008A110A12891C2F2B8A01E6218A11D4
:1005E0000A168D208A01E621FE308A015B20013047
:1005F0008A015B208A01E6218A110A169D208A0160
:10060000E621FE308A015B2080308A015B200430C5
:10061000A9004008A4004108A5005A30B000B1016B
:100620008A01AA2020308A015B2020308A015B20C9
:10063000A901003006180130A400A5015A30B0000D
:10064000B1018A01AA208A01E62164008A110A12F6
:10065000891CFA2A8A01E6218A110A168D208A014C
:10066000E621FE308A015B2001308A015B208A018D
:10067000E621FE308A015B2080308A015B203E301B
:100680008A015B2020308A015B2020308A015B20B8
:1006900020308A015B2020308A015B2020308A01D3
:1006A0005B2020308A015B2020308A015B20FE30F5
:1006B0008A015B20C0308A015B2020308A015B20E8
:1006C00020308A015B2020308A015B2020308A01A3
:1006D0005B2020308A015B2020308A015B202030A3
:1006E0008A015B203C308A015B208A01E62164306C
:1006F0008A0132218A01E621FE308A015B208030A6
:100700008A015B204C308A015B203E308A015B20ED
:1007100020308A015B2020308A015B2020308A0152
:100720005B2020308A015B2020308A015B20203052
:100730008A015B20FE308A015B20C0308A015B2089
:1007400020308A015B2020308A015B2020308A0122
:100750005B2020308A015B2020308A015B20203022
:100760008A015B203C308A015B2073308A015B2068
:100770008A01E62164308A0132218A01E621FE30B5
:100780008A015B2080308A015B204C308A015B202B
:1007900075308A015B203E308A015B2020308A015F
:1007A0005B2020308A015B2020308A015B202030D2
:1007B0008A015B2020308A015B20FE308A015B20A9
:1007C000C0308A015B2020308A015B2020308A0102
:1007D0005B2020308A015B2020308A015B202030A2
:1007E0008A015B203C308A015B2061308A015B20FA
:1007F00073308A015B208A01E62164308A0132214C
:100800008A01E621FE308A015B2080308A015B206C
:100810004C308A015B2075308A015B2063308A018D
:100820005B203E308A015B2020308A015B20203033
:100830008A015B2020308A015B2020308A015B2006
:10084000FE308A015B20C0308A015B2020308A01A3
:100850005B2020308A015B2020308A015B20203021
:100860008A015B203C308A015B206E308A015B206C
:1008700061308A015B2073308A015B208A01E621A6
:1008800064308A0132218A01E621FE308A015B2030
:1008900080308A015B204C308A015B2075308A01F0
:1008A0005B2063308A015B2061308A015B203E302F
:1008B0008A015B2020308A015B2020308A015B2086
:1008C00020308A015B20FE308A015B20C0308A0123
:1008D0005B2020308A015B2020308A015B202030A1
:1008E0008A015B203C308A015B2069308A015B20F1
:1008F0006E308A015B2061308A015B2073308A018F
:100900005B208A01E62164308A0132218A01E621D6
:10091000FE308A015B2080308A015B204C308A01E6
:100920005B2075308A015B2063308A015B20613077
:100930008A015B2073308A015B203E308A015B2094
:1009400020308A015B2020308A015B20FE308A0142
:100950005B20C0308A015B2020308A015B20203080
:100960008A015B203C308A015B2062308A015B2077
:1009700069308A015B206E308A015B2061308A0118
:100980005B2073308A015B208A01E62164308A0192
:1009900032218A01E621FE308A015B2080308A0103
:1009A0005B204C308A015B2075308A015B2063300C
:1009B0008A015B2061308A015B2073308A015B20F1
:1009C00020308A015B203E308A015B2020308A0182
:1009D0005B20FE308A015B20C0308A015B20203022
:1009E0008A015B203C308A015B206F308A015B20EA
:1009F00062308A015B2069308A015B206E308A0197
:100A00005B2061308A015B2073308A015B208A01A0
:100A1000E62164308A0132218A01E621FE308A0112
:100A20005B2080308A015B204C308A015B2075306E
:100A30008A015B2063308A015B2061308A015B2080
:100A400073308A015B2020308A015B2020308A01CC
:100A50005B203E308A015B20FE308A015B20C03083
:100A60008A015B203C308A015B2042308A015B2096
:100A70006F308A015B2062308A015B2069308A0115
:100A80005B206E308A015B2061308A015B2073300D
:100A90008A015B208A01E62164308A0132218A01C1
:100AA000E621FE308A015B2080308A015B204C30D9
:100AB0008A015B2075308A015B2063308A015B20EC
:100AC00061308A015B2073308A015B2020308A010B
:100AD0005B2020308A015B2020308A015B20FE30C1
:100AE0008A015B20C0308A015B2020308A015B20B4
:100AF00042308A015B206F308A015B2062308A01BC
:100B00005B2069308A015B206E308A015B20613096
:100B10008A015B2073308A015B208A01E621033061
:100B2000A300E8308A0133218A01E621FE308A01E0
:100B30005B2001308A015B208A01E621FE308A01B8
:100B40005B20C0308A015B204D308A015B20493038
:100B50008A015B2043308A015B203C308A015B20A4
:100B60008A01E6218A110A169D208A01E6218A015E
:100B7000E6214008A0004108A1000230A300003097
:100B80008A0153218A110A12031DE92D8A01E621E7
:100B9000FE308A015B20C0308A015B204D308A0123
:100BA0005B2049308A015B2043308A015B208A0147
:100BB000E62164008A110A12891CE42D8A110A16A2
:100BC0008D208A110A120D2E8A01E6218A110A123D
:100BD000092E8A01E621FE308A015B20C0308A019D
:100BE0005B2042308A015B204F308A015B2042301B
:100BF0008A015B208A01E62164008A110A12891C9D
:100C0000072E8A110A168D208A150A12CD2C8A0108
:100C1000E6218A01E6218A01B02D8A01E621FE3013
:100C20008A015B20C3308A015B2020308A015B206F
:100C30003E308A015B208A01E6218A110A169D2036
:100C40008A01E6218A01E6214008A0004108A100AE
:100C50000130A3005E308A0153218A110A12031D5C
:100C6000542E8A01E621FE308A015B20C5308A01BC
:100C70005B2049308A015B204E308A015B2049307D
:100C80008A015B208A01E62164008A110A12891C0C
:100C90004F2E8A110A168D208A150A12442A8A01BB
:100CA000E6218A110A12A32E4008A0004108A100E3
:100CB0000230A300BC308A0153218A110A12031D9D
:100CC000842E8A01E621FE308A015B20C5308A012C
:100CD0005B2043308A015B2046308A015B2047302D
:100CE0008A015B208A01E62164008A110A12891CAC
:100CF0007F2E8A110A168D208A110A12A72E8A01C8
:100D0000E6218A110A12A32E8A01E621FE308A0109
:100D10005B20C5308A015B2056308A015B204F3052
:100D20008A015B204C308A015B208A01E621640045
:100D30008A110A12891CA12E8A110A168D208A0195
:100D4000942D8A01E6218A01E6218A011B2E8A015F
:100D5000E6214008BE004108BF008A01E621FE30BE
:100D60008A015B20C5308A015B2053308A015B20F9
:100D700045308A015B2054308A015B20FE308A01B5
:100D80005B2080308A015B2056308A015B20453031
:100D90008A015B204C308A015B203A308A015B205B
:100DA00020308A015B200230A9004B08A400A50175
:100DB0005A30B000B1018A01AA2025308A015B2097
:100DC0008A01E6218A110A169D208A01E621023055
:100DD0004002BA000030031C013E4102BB003E0845
:100DE000A0003F08A1003B08A3003A088A015C214B
:100DF000BA0002304007BC0041080318013EBD00A4
:100E00003E08A0003F08A1003D08A3003C088A015D
:100E10005621BC003A0884003C088A017121BC00BC
:100E2000BD0064003C083D048A110A1203195B2FBF
:100E30008A01E6214008BE004108BF008A01E62180
:100E40004008A0004108A1000A30A200A3018A01C5
:100E50007521BA002108BB003A08A6003B08A7008C
:100E60005830A200A3018A019121BA002508BB00D5
:100E70003A08A0003B08A1006430A200A3018A0147
:100E80007521BA002108BB000A303A07CB008A015D
:100E9000E621FE308A015B2085308A015B2002302A
:100EA000A9004B08A400A5015A30B000B1018A0185
:100EB000AA208A01E6218A01E62164008A110A1229
:100EC000891CE02E8A01E621031702308D000313EE
:100ED0004B088A0122218A01E6218A110A168D20F7
:100EE0008A01E6214008BE004108BF008A01E621D0
:100EF000FE308A015B2080308A015B2056308A01F7
:100F00005B2055308A015B2045308A015B203A30F6
:100F10008A015B200430A9004408A4004508A5000C
:100F20005A30B000B1018A01AA208A01E6218A1153
:100F30000A169D208A01E62102304002BA000030E4
:100F4000031C013E4102BB003E08A0003F08A10077
:100F50003B08A3003A088A015C21BA00023040072E
:100F6000BC0041080318013EBD003E08A0003F0838
:100F7000A1003D08A3003C088A015621BC003A08A4
:100F800084003C088A017121BC00BD0064003C085B
:100F90003D048A150A12031909288A01E62140082E
:100FA000BE004108BF008A01E6214008A6004108B2
:100FB000A7000A30A200A3018A019121C4002508DC
:100FC000C5008A01E6214408A0004508A100273099
:100FD000A3000F308A0159218A110A12031DF42F30
:100FE0000F30C4002730C5008A01E621FE308A0197
:100FF0005B2084308A015B200430A9004408A400EF
:101000004508A5005A30B000B1018A01AA208A0122
:10101000E6218A01E62164008A110A12891C952FB3
:101020008A01E62103178D01031344088A01222156
:101030008A01E621031701308D00031345088A0158
:1010400022218A01E6218A110A168D208A01E621D1
:101050004008BE004108BF008A01E621FE308A0137
:101060005B2080308A015B2052308A015B20453052
:101070008A015B2054308A015B203A308A015B2070
:1010800020308A015B200230A9004A08A400A50193
:101090005A30B000B1018A01AA2073308A015B2066
:1010A00020308A015B208A01E6218A110A169D20E0
:1010B0008A01E62102304002BA000030031C013EE2
:1010C0004102BB003E08A0003F08A1003B08A3006E
:1010D0003A088A015C21BA0002304007BC0041088E
:1010E0000318013EBD003E08A0003F08A1003D08D6
:1010F000A3003C088A015621BC003A0884003C0841
:101100008A017121BC00BD0064003C083D048A15C1
:101110000A120319B1288A01E6214008BE004108DD
:10112000BF008A01E6214008A0004108A100643008
:10113000A200A3018A017521CA008A01E621FE30BE
:101140008A015B2085308A015B200230A9004A08B1
:10115000A400A5015A30B000B1018A01AA208A0179
:10116000E6218A01E62164008A150A12891C5328A7
:101170008A01E621031704308D0003134A088A010F
:1011800022218A01E6218A110A168D208A01E62190
:101190004008BE004108BF008A01E621FE308A01F6
:1011A0005B2080308A015B2052308A015B20413015
:1011B0008A015B204D308A015B203A308A015B2036
:1011C00020308A015B200230A9004908A400A50153
:1011D0005A30B000B1018A01AA2073308A015B2025
:1011E00020308A015B208A01E6218A110A169D209F
:1011F0008A01E62102304002BA000030031C013EA1
:101200004102BB003E08A0003F08A1003B08A3002C
:101210003A088A015C21BA0002304007BC0041084C
:101220000318013EBD003E08A0003F08A1003D0894
:10123000A3003C088A015621BC003A0884003C08FF
:101240008A017121BC00BD0064003C083D048A1580
:101250000A1203196E298A01E6214008BE004108DE
:10126000BF008A01E6214008A0004108A1000A3021
:10127000A200A3018A017521BA002108BB003A0827
:10128000A6003B08A7001D30A200A3018A019121FE
:10129000BA002508BB003A08A0003B08A100643052
:1012A000A200A3018A017521BA002108BB001E30EB
:1012B0003A07C9008A01E621FE308A015B208530A9
:1012C0008A015B200230A9004908A400A5015A3018
:1012D000B000B1018A01AA208A01E6218A01E62133
:1012E00064008A150A12891CF3288A01E621031773
:1012F00003308D00031349088A0122218A01E62167
:101300008A110A168D208A01E6214008BE00410894
:10131000BF008A01E621FE308A015B2080308A010D
:101320005B2053308A015B2045308A015B204E30C0
:101330008A015B203A308A015B2020308A015B20E1
:101340000030881801308A015B2020308A015B2040
:1013500020308A015B208A01E6218A110A169D202D
:101360008A01E62102304002BA000030031C013E2F
:101370004102BB003E08A0003F08A1003B08A300BB
:101380003A088A015C21BA0002304007BC004108DB
:101390000318013EBD003E08A0003F08A1003D0823
:1013A000A3003C088A015621BC003A0884003C088E
:1013B0008A017121BC00BD0064003C083D048A150F
:1013C0000A120319092A8A01E6214008BE004108D1
:1013D000BF008A01E6214008A0004108A1000330B7
:1013E000A2000230A3008A01752101390319881077
:1013F000031D88148A01E621FE308A015B208530B6
:101400008A015B200030881801308A015B208A0144
:10141000E6218A01E62164008A150A12891CAB299B
:101420008A01E621031705308D0003130030881868
:1014300001308A0122218A01E6218A110A168D20B3
:101440008A01E621FE308A015B2080308A015B2020
:1014500020308A015B2020308A015B2020308A0105
:101460005B2020308A015B2020308A015B20203005
:101470008A015B2020308A015B2020308A015B20BA
:101480008A01E6218A010D2E8A01E621C601C701E3
:101490008A01E621031704308D0003138A01182105
:1014A000CA008A01E621FE308A015B2080308A0171
:1014B0005B200230A9004B08A400A5015A30B000FF
:1014C000B1018A01AA2025308A015B2020308A01DF
:1014D0005B200430A9004608A4004708A5005A3044
:1014E000B000B1018A01AA20FE308A015B20C4301D
:1014F0008A015B200430A9004408A4004508A50027
:101500005A30B000B1018A01AA208A01E6210130D7
:10151000A300F4308A0133218A01E62164004A08DD
:10152000003C8A150A120319BB2A8A01E621FE3003
:101530008A015B20C0308A015B2028308A015B2051
:10154000A9014A08A400A5015A30B000B1018A01DE
:10155000AA2029308A015B208A01E6210330A300FA
:10156000E8308A0133218A01E621CA038A01E62193
:101570008A150A128C2A8A01E621FE308A015B2034
:10158000C0308A015B204D308A015B2049308A01DE
:101590005B2043308A015B208A01E6218A150A120A
:1015A00058278A01E621F430B8000130B9008A01D9
:1015B000E6214B08A600A7010A30A200A3018A0178
:1015C0009121BA002508BB00F430BA070130031896
:1015D000013EBB073808A0003908A1003B08A30062
:1015E0003A088A0153218A150A12031D1C2B8A010D
:1015F000E621B80A0319B90A8A01E6217F30A8005A
:101600003808A2003908A30001308A0105208A01A8
:10161000E621E6304907BA00FF300318013EBB005F
:101620003B08A3003A088A0133218A01E6218A1582
:101630000A12D72A8A01E6218A01E6218A110A16AE
:101640009D208A01E6214008BE004108BF008A01B2
:10165000E6218A110A169D208A01E6210230400205
:10166000BA000030031C013E4102BB003E08A0004E
:101670003F08A1003B08A3003A088A015C21BA0098
:1016800002304007BC0041080318013EBD003E087F
:10169000A0003F08A1003D08A3003C088A01562194
:1016A000BC003A0884003C088A017121BC00BD00DE
:1016B00064003C083D048A150A120319DC2B8A01D8
:1016C000E6214008BE004108BF008A01E62140082B
:1016D000A0004108A1000A30A200A3018A017521DF
:1016E000BA002108BB003A08A6003B08A7000A3050
:1016F000A200A3018A019121BA002508BB00F430A1
:101700003A07B80001300318013E3B07B9008A01CF
:10171000E6217F30A8003808A2003908A300013074
:101720008A0105208A01E6210A308A0132218A01D4
:10173000E6214008A0004108A1000A30A200A30150
:101740008A017521BA002108BB003A08A6003B08AF
:10175000A7005830A200A3018A019121BA002508F0
:10176000BB003A08A0003B08A1006430A200A3011E
:101770008A017521BA002108BB000A303A07C0006F
:101780003B080318013EC1008A01E621FE308A01B0
:101790005B2080308A015B200230A9004008A40051
:1017A0004108A5005A30B000B1018A01AA202530B5
:1017B0008A015B208A01E6218A01E6210530440284
:1017C000BA000030031C013E4502BB004608A000E1
:1017D0004708A1003B08A3003A088A015F218A1547
:1017E0000A12031DFF2B8A01E6218A150A12D62749
:1017F0008A01E6218A150A12732C8A01E6218A01E0
:10180000E62164008A150A12891C272B8A01E62129
:101810008A110A168D208A01E621FE308A015B209A
:10182000C0308A015B2028308A015B2003308A01A6
:101830005B2029308A015B208A01E6218A150A1281
:10184000D6278A01E6218A110A169D208A01E621FF
:101850008A01E6214008A0004108A1000230A3004F
:1018600000308A0153218A150A12031D542C8A0163
:10187000E621FE308A015B20C1308A015B20023004
:101880008A015B208A01E62164008A150A12891CFC
:101890004F2C8A110A168D208A150A12BB2A8A013A
:1018A000E6218A150A126E2C8A01E621FE308A0191
:1018B0005B20C1308A015B2004308A015B208A01F1
:1018C000E62164008A150A12891C6C2C8A110A16FA
:1018D0008D208A150A12732C8A01E6218A01E621DD
:1018E0008A150A12212C8A01E6218A110A16CB20B8
:1018F0008A01E6210730A300D0308A0133218A0112
:10190000E621FE308A015B2080308A015B20523064
:101910008A015B2045308A015B2054308A015B20BC
:1019200049308A015B2052308A015B2041308A01B4
:101930005B2052308A015B2020308A015B20FE3020
:101940008A015B20C0308A015B2020308A015B2045
:1019500020308A015B2042308A015B204F308A01AF
:101960005B2042308A015B2049308A015B204E3087
:101970008A015B2041308A015B208A01E6216400F4
:101980008A150A12891CBD2C8A01E6218A110A16C1
:101990008D208A01E6218A01942D8A01E621FE30FC
:1019A0008A015B2001308A015B208A01E621FE303A
:1019B0008A015B2080308A015B2030308A015B2005
:1019C00030308A015B2025308A015B2020308A017B
:1019D0005B2030308A015B2030308A015B20303060
:1019E0008A015B2030308A015B20FE308A015B2057
:1019F000C0308A015B2042308A015B204F308A016F
:101A00005B2042308A015B2020308A015B203E301F
:101A10008A015B2049308A015B204E308A015B20BD
:101A200049308A015B208A01E6218A110A169D202D
:101A30008A01E6214008A0004108A1000A30A20066
:101A4000A3018A017521BA002108BB003A08A6004B
:101A50003B08A7006130A200A3018A019121BA00CE
:101A60002508BB003A08A0003B08A1006430A20092
:101A7000A3018A017521C2002108C3008A01E62161
:101A8000FE308A015B2080308A015B200230A90091
:101A90004208A4004308A5005A30B000B1018A01F1
:101AA000AA208A01E62164008A150A12891C132DD6
:101AB0008A01E6218A110A168D208A01E621400852
:101AC000A6004108A7001430A200A3018A019121B9
:101AD000C2002508C3008A01E6214208A00043088D
:101AE000A1000330A300E8308A0153218A150A12AD
:101AF000031D7E2DE830C2000330C3008A01E621B9
:101B00008A110A169D208A01E6214008A00041089A
:101B1000A1000A30A200A3018A017521CC008A012C
:101B2000E621FE308A015B2084308A015B2004308C
:101B3000A9004C08A400A5015A30B000B1018A01E7
:101B4000AA208A01E62164008A150A12891C7E2DCA
:101B50008A01E6218A110A168D208A01E6218A115E
:101B60000A169D208A01E6218A01E6214008A0008C
:101B70004108A1000130A300F4308A0153218A15E5
:101B80000A12031DED2D8A01E621FE308A015B2039
:101B9000C5308A015B2049308A015B204E308A01C2
:101BA0005B2049308A015B208A01E62164008A15A6
:101BB0000A12891CE82D8A110A168D200317043099
:101BC0008D0003138A011821CA008A150A12112EEA
:101BD0008A01E6218A150A120C2E8A01E621FE30BE
:101BE0008A015B20C5308A015B2056308A015B2068
:101BF0004F308A015B204C308A015B208A01E6214C
:101C000064008A150A12891C0A2E8A110A168D2070
:101C10008A01942D8A01E6218A01E6218A150A1299
:101C2000AD2D8A01E62164004A08003C8A150A129B
:101C30000319402E8A01E621FE308A015B20C03064
:101C40008A015B2028308A015B20A9014A08A40090
:101C5000A5015A30B000B1018A01AA2029308A01B9
:101C60005B208A01E6210330A300E8308A0133219A
:101C70008A01E621CA038A01E6218A150A12112E79
:101C80008A01E621FE308A015B20C0308A015B2098
:101C900042308A015B204F308A015B2042308A014A
:101CA0005B2020308A015B203E308A015B20463079
:101CB0008A015B2049308A015B204E308A015B201B
:101CC0008A01E62197018A01E6210B128A01E621A9
:101CD000C8018A01E6212030B8004E30B9008A01DF
:101CE000E621043087068316071183128A01E62154
:101CF0003908A10038088A0140218A01E621380804
:101D0000A0003908A1004308A30042088A01592114
:101D10008A150A12031DC42E8A01E6210230B80278
:101D20000030031C013EB9028A01E6213808A000F8
:101D30003908A1001330A30088308A0159218A157F
:101D40000A12031DC22E8A01E6210A30B8020030B1
:101D5000031C013EB9028A01E6213808A0003908B7
:101D6000A1002730A30010308A0159218A150A12D8
:101D7000031DC02E3230B8020030031C013EB902F0
:101D80008A01E6218A01E6218A01E62164008A159A
:101D90000A12071DCC2EC80A8A01E62164004808F1
:101DA000C83C8A150A12031DD72ECC03C8018A012C
:101DB000E62164004C08003C8A150A120319E72E3C
:101DC0008A01E62164008A150A12891C6F2E8A0195
:101DD000E621043087068316071183128A01E62163
:101DE0003908A10038088A0140218A01E621B80A91
:101DF0000319B90A8A01E6213808A0003908A100B0
:101E00000930A300C4308A0159218A150A12031D22
:101E1000532F8A01E6210A30B8070318B90A8A014C
:101E2000E6213808A0003908A1002730A3001030AF
:101E30008A015C218A150A12031D512F8A01E621AD
:101E40008A110A168D208A01E621FE308A015B2064
:101E5000C0308A015B2046308A015B2049308A010C
:101E60005B204E308A015B2041308A015B204C3080
:101E70008A015B2049308A015B205A308A015B204D
:101E80004F308A015B208A01E6210730A300D03061
:101E90008A0133218A01E6218A150A12CD2C8A0192
:101EA000E6218A01E6218A01E6218A150A12E72E37
:101EB0008A01E62197018A01E6219830B8003A307C
:101EC000B9008A01E62104308706831607118312C0
:101ED0008A01E6213908A10038088A0140218A01D7
:101EE000E6213808A0003908A1000330A300E8303B
:101EF0008A0159218A150A12031DBB2F8A01E62186
:101F00000230B8020030031C013EB9028A01E6210A
:101F10003808A0003908A1001330A30088308A01D6
:101F200059218A150A12031DB42F8A01E6210A30AD
:101F3000B8020030031C013EB9028A01E6213808CC
:101F4000A0003908A1002730A30010308A015921D0
:101F50008A150A12031DB22F3230B8020030031C5A
:101F6000013EB9028A01E6218A01E6218A150A1298
:101F7000612F8A01E6218A01E6210C3097008A014F
:101F8000E6210530C6070318C70A8A01E6210B16A9
:101F90008A01E6217F30A800F430A2000130A300BE
:101FA00001308A0105208A01E62108008A01E62124
:101FB0003808A0003908A1000130A300F4308A01DC
:101FC00059218A110A16031D0D288A01E6210130C4
:101FD000B8020030031C013EB9028A01E6217F30BD
:101FE000A8003808A2003908A30001308A010520A2
:101FF0008A01E621E6304907BA00FF300318013EA6
:10200000BB003B08A3003A088A0133218A01E6217C
:102010008A150A12D62F8A01E6218A01E62180302C
:1020200085068316851383128A01E62197018A01AA
:10203000E6210B128A01E621E830B8000330B9002E
:102040008A01E621043087068316071183128A016C
:10205000E6213908A10038088A0140218A01E621D9
:102060003808A0003908A1000330A300E8308A0135
:102070005C218A110A16031D8D288A01E621B80AFF
:102080000319B90A8A01E6213808A0003908A1001D
:102090000930A300C4308A0159218A110A16031D90
:1020A00086288A01E6210A30B8070318B90A8A018E
:1020B000E6213808A0003908A1001330A3008830B9
:1020C0008A015C218A110A16031D84288A01E621EF
:1020D0000530C6070318C70A8A01E621FE308A01C7
:1020E0005B2084308A015B200430A9004608A400EC
:1020F0004708A5005A30B000B1018A01AA208A0120
:10210000E62108008A01E6218A01E6218A01E6210A
:102110008A110A1620288A01E6218A01E621640034
:102120008A110A16891C9A2864308A0132218A1180
:102130000A168D288A01E62108008A01E6219E01FF
:102140008A01E62183169E0183128A01E6219F14EB
:102150008A01E62164008A110A160C1FA8288A0148
:10216000E6210C138A01E621FF30A600A7011E0814
:10217000A200A3018A019121BA002508BB008316A1
:102180001E0883123A07C0003B080318013EC10035
:102190008A01E62108008A01E6210530B6000230F6
:1021A000B4007230A20008308A01D8208A01E621EA
:1021B00032308A0132218A01E6210530B600023030
:1021C000B4007230A20008308A01D8208A01E621CA
:1021D000C8308A0132218A01E6210530B60002307A
:1021E000B4007230A20008308A01D8208A01E621AA
:1021F000C8308A0132218A01E6210530B60002305A
:10220000B4006E30A20008308A01D8208A01E6218D
:1022100032308A0132218A01E6210530B6000230CF
:10222000B4007230A20008308A01D8208A01E62169
:10223000C8308A0132218A01E6210530B600023019
:10224000B4007430A20008308A01D8208A01E62147
:10225000080064008A110A168B1C4E29C60A03194D
:10226000C70AFE308A015B2084308A015B2004307B
:10227000A9004608A4004708A5005A30B000B101E3
:102280008A01AA2064008A110A16061C4D290A3008
:102290008A0132218A110A1642298B1009008A010B
:0A22A000E62163008A110A16512995
:02400E00C420CC
:02401000FF3F70
:00000001FF
